:1000000009C021C020C01FC01EC01DC01CC01BC015
:100010001AC019C011241FBECFE9CDBF10E0A0E661
:10002000B0E0E0EEF2E002C005900D92A236B1071A
:10003000D9F710E0A2E6B0E001C01D92A237B107E7
:10004000E1F7B9D04BC1DCCF369A349BFECF349A5E
:1000500084B195B1089520916200309163002230FF
:10006000310549F140916000509161002330310524
:1000700068F421153105C1F021303105C9F5481B5F
:10008000590B509361004093600032C02430310519
:1000900021F1C0F02530310559F5409164005091AF
:1000A0006500481B590B20C04091660050916700C5
:1000B000480F591F0DC04091640050916500480FD2
:1000C000591F12C04091660050916700481B590BA0
:1000D00050936700409366000BC0840F951F909368
:1000E00061008093600004C05093650040936400F9
:1000F000409160005091610040385105A0F480911A
:100100006600909167008038910568F46091640002
:1001100070916500452B39F0892B29F0CB010197AF
:100120008F37910548F0C901019666E070E0C2D0B2
:1001300090936300809362000895FF920F931F9342
:10014000CF93DF93EC0134E0F32E00E010E0E88180
:10015000F98180819A81892B80838BE291E00197DC
:10016000F1F700C00000E881F98190818A818095D3
:10017000892380838C8197B19C7F97B997B18370D5
:10018000892B87B961DF8B8197B19C7F97B997B134
:100190008370892B87B958DF080F191FFA94B9F6B5
:1001A000C8019695879596958795DF91CF911F9178
:1001B0000F91FF90089586B1866086B9379ABB9AF1
:1001C000C398B89AB99ABA9A82E080936C0083E097
:1001D00080936D0088E390E090936A0080936900BB
:1001E00080E180936B0010E0C0E0D0E089E690E011
:1001F000A4DF069708F052C02196CD3281E0D807DF
:100200000CF051C0112309F450C020916E003091C0
:100210006F0080916000909161002817390710F4F9
:10022000C09801C0C09A20916E0030916F008091FB
:100230006600909167002817390710F4C19801C033
:10024000C19A20916E0030916F008091640090916E
:1002500065002817390710F4C29801C0C29A80912E
:100260006E0090916F008038910594F082E090E0EC
:10027000F2DE10926F0010926E00809170009091EB
:1002800071000196909371008093700011E0AECFE1
:10029000019690936F0080936E00B7CFCD3281E0CE
:1002A000D8070CF4B2CFC0E0D0E0C298C198C09893
:1002B00010E09CCFAA1BBB1B51E107C0AA1FBB1FAC
:1002C000A617B70710F0A61BB70B881F991F5A95E2
:1002D000A9F780959095BC01CD010895F894FFCFC2
:0202E00080009C
:00000001FF
